:100000000C942A000C9449000C9447000C9447006F
:100010000C9447000C9447000C9447000C94470044
:100020000C9447000C9460000C9447000C94BB04A3
:100030000C9490040C9447000C9447000C944700D7
:100040000C9447000C9447000C9447000C94470014
:100050000C94470011241FBECFE5D4E0DEBFCDBF16
:1000600011E0A0E6B0E0E6E8FEE002C005900D92E7
:10007000A435B107D9F721E0A4E5B1E001C01D9294
:10008000A03CB207E1F70E945B030C9441070C947B
:1000900000001F920F920FB60F9211248F939F931F
:1000A00080915E0190915F01019690935F01809332
:1000B0005E019F918F910F900FBE0F901F9018952A
:1000C0001F920F920FB60F9211242F933F934F93CD
:1000D0008F939F93809154019091550101968D3398
:1000E000910528F490935501809354011BC0109200
:1000F00055011092540120915E0130915F014CE353
:10010000429FC001439F900D11249695879590932F
:100110005D0180935C0110925F0110925E0181E0AD
:1001200080935B019F918F914F913F912F910F9001
:100130000FBE0F901F9018958D9A82E88FBD89E1B0
:100140008EBD8FE792E097BD86BD1BBC1ABC08959B
:100150008A98929A85B7836085BF8BB780648BBF7E
:1001600085E083BF12BE89B7816089BF0895CF92B1
:10017000DF92EF92FF926091580170915901809146
:100180005C0190915D01681B790B80915601909103
:100190005701860F971F9093570180935601893E10
:1001A00023E092073CF088EE93E090935701809310
:1001B000560109C088319C4F34F488E19CEF90933C
:1001C000570180935601882777FD8095982F0E94CC
:1001D00099059B01AC010E9402056B017C016091B5
:1001E000560170915701882777FD8095982F0E94BE
:1001F000990520E030E040E05FE30E9425069B0186
:10020000AC01C701B6010E9402050E946605603874
:1002100082E0780714F06FE772E0772314F460E06F
:1002200070E07BBD6ABDFF90EF90DF90CF900895A6
:100230002091600121110BC020916800309169006C
:100240008217930724F021E0209360010DC02091D4
:100250006001213049F420916A0030916B00281729
:10026000390714F010926001209160012223A1F15E
:100270002091680030916900281739072CF080918F
:10028000620090916300089560916600709167002C
:10029000861797072CF0809164009091650008956F
:1002A000E0916200F0916300DC01A21BB30B40916E
:1002B0006400509165004E1B5F0BA49FC001A59F79
:1002C000900DB49F900D1124621B730B0E94880641
:1002D000CF01860F971F089580E090E008958091E8
:1002E0006101882309F4E6C11092610147E050E002
:1002F0006CE670E080E791E00E94CE06892B09F061
:1003000043C080915A0181113FC087E791E00E946C
:10031000B0069093590180935801809158019091B3
:100320005901992324F410925901109258012091F7
:1003300058013091590180916400909165008217B5
:10034000930724F4909359018093580160915801C8
:100350007091590180E090E00E940F0784E790E0DF
:100360000E94720480915801909159014AE066E61A
:1003700071E00E94DC0686E691E00E94720483EA46
:1003800090E00E94720494C144E050E06EE770E097
:1003900080E791E00E94CE06892B61F481E0809392
:1003A0005A01109257011092560183E890E00E9482
:1003B00072047EC146E050E060E970E080E791E0C1
:1003C0000E94CE06892B59F410925A0110925701BF
:1003D0001092560187E990E00E94720469C14CE0D6
:1003E00050E066EA70E080E791E00E94CE06892B3B
:1003F000A9F58CE791E00E94B00690936B00809382
:100400006A0020916800309169002817390714F0BC
:10041000992334F483E290E090936B0080936A0018
:1004200060916A0070916B0082E090E00E940F077B
:1004300083EB90E00E9472044AE066E671E08091EE
:100440006A0090916B000E94DC0686E691E00E94B3
:10045000720483EA90E00E9472042AC14BE050E0EB
:100460006EEB70E080E791E00E94CE06892BD1F51B
:100470008BE791E00E94B00690936900809368003A
:100480002091660030916700821793073CF4209119
:100490006A0030916B002817390734F088E290E049
:1004A0009093690080936800609168007091690082
:1004B00084E090E00E940F078AEC90E00E947204B2
:1004C0004AE066E671E080916800909169000E94C0
:1004D000DC0686E691E00E94720483EA90E00E94C6
:1004E0007204E6C04CE050E064ED70E080E791E01B
:1004F0000E94CE06892BB1F58CE791E00E94B006F0
:1005000090936700809366002091680030916900A5
:10051000281739071CF48739910534F08CE390E0F3
:100520009093670080936600609166007091670009
:1005300086E090E00E940F0781EE90E00E94720436
:100540004AE066E671E080916600909167000E9443
:10055000DC0686E691E00E94720483EA90E00E9445
:100560007204A6C04BE050E06CEE70E080E791E0D2
:100570000E94CE06892BA9F58BE791E00E94B00678
:100580009093630080936200209164003091650035
:100590002817390714F0992334F480E793E09093F7
:1005A000630080936200609162007091630088E054
:1005B00090E00E940F0788EF90E00E9472044AE0EA
:1005C00066E671E080916200909163000E94DC0613
:1005D00086E691E00E94720483EA90E00E94720431
:1005E00067C04BE050E062E071E080E791E00E947C
:1005F000CE06892BB1F58BE791E00E94B00690936F
:10060000650080936400209162003091630082173E
:1006100093071CF08938934134F088E998E090936F
:1006200065008093640060916400709165008AE0C9
:1006300090E00E940F078EE091E00E9472044AE071
:1006400066E671E080916400909165000E94DC068E
:1006500086E691E00E94720483EA90E00E947204B0
:1006600027C048E050E068E171E080E791E00E9437
:10067000CE06892BE9F488E791E00E94B0069093BA
:1006800061008093600081E291E00E9472044AE080
:1006900066E671E080916000909161000E94DC0646
:1006A00086E691E00E94720483EA90E00E94720460
:1006B0000E9481040895B89A0E949C000E94A8009C
:1006C0000E944604789480E090E00E94090790938D
:1006D00059018093580182E090E00E9409076C0163
:1006E00090936B0080936A0084E090E00E94090779
:1006F0008C01909369008093680086E090E00E94EE
:100700000907EC01909367008093660088E090E011
:100710000E9409077C0190936300809362008AE045
:1007200090E00E9409079C0190936500809364000B
:1007300080915801909159012817390734F0809120
:10074000580190915901992324F410925901109263
:1007500058010C151D0514F0DD2034F483E290E0FF
:1007600090936B0080936A000C171D0714F41123FB
:1007700034F488E290E0909369008093680080915F
:100780006800909169008C179D071CF4C739D1054A
:1007900034F08CE390E090936700809366002E1510
:1007A0003F0514F0FF2034F480E793E0909363005A
:1007B000809362008091620090916300281739074E
:1007C0001CF02938334134F088E998E090936500B3
:1007D000809364008CE291E00E9472040E946F0199
:1007E00080915B018823D1F310925B0180915A01C3
:1007F000882351F080916000909161000E9418015F
:10080000909359018093580180915801909159011A
:10081000813D974014F0C09A01C0C09888E790E0ED
:100820000E94720480915C0190915D014AE066E64D
:1008300071E00E94DC0686E691E00E94720483E487
:1008400091E00E94720480915801909159014AE010
:1008500066E671E00E94DC0686E691E00E94720482
:100860008BE491E00E9472048AB59BB54AE066E68B
:1008700071E00E94DC0686E691E00E94720483EA41
:1008800090E00E9472040E94B700A8CF10BC87E6D7
:1008900089B988E98AB986E880BD089540916501E3
:1008A0002091640150E04F5F5F4F4F73507830E00C
:1008B0004217530799F3E0916501F0E0E058FE4FCD
:1008C00080838091650190E001968F73907880938A
:1008D000650180916301811104C081E0809363010F
:1008E000559A0895CF93DF93EC018881882331F0E6
:1008F00021960E944E0489918111FBCFDF91CF9107
:10090000089580E090E0FC01E059FE4F10820196CE
:1009100080319105C1F71092620110926101089532
:100920001F920F920FB60F9211248F939F93EF9304
:10093000FF939091650180916401981781F0E09197
:100940006401F0E0E058FE4F80818CB98091640131
:1009500090E001968F7390788093640103C055985E
:1009600010926301FF91EF919F918F910F900FBEB5
:100970000F901F9018951F920F920FB60F9211248F
:100980008F939F93EF93FF938CB18A3011F08D304A
:1009900061F4E0916201F0E0E059FE4F108281E0E5
:1009A000809361011092620123C0883011F08F376B
:1009B00081F4809162018823D9F080916201815095
:1009C00080936201E0916201F0E0E059FE4F1082F5
:1009D0000FC0909162019F3058F4E0916201F0E005
:1009E000E059FE4F8083809162018F5F80936201A6
:1009F000FF91EF919F918F910F900FBE0F901F90DD
:100A000018955058BB27AA270ED0E5C0D6D030F095
:100A1000DBD020F031F49F3F11F41EF4CBC00EF474
:100A2000E095E7FBC1C0E92FE7D080F3BA17620772
:100A300073078407950718F071F49EF5FFC00EF454
:100A4000E0950B2EBA2FA02D0B01B90190010C01DE
:100A5000CA01A0011124FF27591B99F0593F50F4F6
:100A6000503E68F11A16F040A22F232F342F44274E
:100A7000585FF3CF469537952795A795F040539546
:100A8000C9F77EF41F16BA0B620B730B840BBAF016
:100A90009150A1F0FF0FBB1F661F771F881FC2F781
:100AA0000EC0BA0F621F731F841F48F48795779595
:100AB0006795B795F7959E3F08F0B3CF9395880F4C
:100AC00008F09927EE0F97958795089504D06894BC
:100AD000B111B5C0089598D088F09F5790F0B92F04
:100AE0009927B751A0F0D1F0660F771F881F991F83
:100AF0001AF0BA95C9F712C0B13081F09FD0B1E0B9
:100B000008959CC0672F782F8827B85F39F0B93FC8
:100B1000CCF3869577956795B395D9F73EF4909584
:100B20008095709561957F4F8F4F9F4F0895E89402
:100B300009C097FB3EF490958095709561957F4F25
:100B40008F4F9F4F9923A9F0F92F96E9BB279395D3
:100B5000F695879577956795B795F111F8CFFAF4E3
:100B6000BB0F11F460FF1BC06F5F7F4F8F4F9F4F14
:100B700016C0882311F096E911C0772321F09EE872
:100B8000872F762F05C0662371F096E8862F70E0D8
:100B900060E02AF09A95660F771F881FDAF7880FB2
:100BA0009695879597F9089597F99F6780E870E083
:100BB00060E008959FEF80EC089500240A941616D3
:100BC000170618060906089500240A94121613063B
:100BD000140605060895092E0394000C11F48823C9
:100BE00052F0BB0F40F4BF2B11F460FF04C06F5FE5
:100BF0007F4F8F4F9F4F089557FD9058440F551FBB
:100C000059F05F3F71F04795880F97FB991F61F08E
:100C10009F3F79F087950895121613061406551F05
:100C2000F2CF4695F1DF08C0161617061806991F71
:100C3000F1CF86957105610508940895E894BB2766
:100C400066277727CB0197F908950BD0C4CFB5DF7E
:100C500028F0BADF18F0952309F0A6CFABCF112406
:100C6000EECFCADFA0F3959FD1F3950F50E0551F4B
:100C7000629FF001729FBB27F00DB11D639FAA27F1
:100C8000F00DB11DAA1F649F6627B00DA11D661F40
:100C9000829F2227B00DA11D621F739FB00DA11D61
:100CA000621F839FA00D611D221F749F3327A00D1B
:100CB000611D231F849F600D211D822F762F6A2FB7
:100CC00011249F5750408AF0E1F088234AF0EE0F3C
:100CD000FF1FBB1F661F771F881F91505040A9F749
:100CE0009E3F510570F060CFAACF5F3FECF3983E76
:100CF000DCF3869577956795B795F795E7959F5FB0
:100D0000C1F7FE2B880F911D9695879597F9089549
:100D100097FB072E16F4009407D077FD09D00E94A8
:100D20009C0607FC05D03EF4909581959F4F089551
:100D3000709561957F4F0895AA1BBB1B51E107C0B9
:100D4000AA1FBB1FA617B70710F0A61BB70B881F5B
:100D5000991F5A95A9F780959095BC01CD010895EA
:100D6000FC0188279927E89421912032E9F3293062
:100D700010F02E30C8F32B3241F02D3239F4689444
:100D800004C00E94E706820F911D219120532A3052
:100D9000C0F31EF4909581959F4F0895FB01DC01EF
:100DA0004150504030F08D910190801919F400208D
:100DB000B9F7881B990B0895BB274A3031F4992362
:100DC00022F4BDE2909581959F4F0C94F0067AE055
:100DD000979F902D879F802D910D11240895BB27FB
:100DE000FB015527AA27880F991FAA1FA41710F0E7
:100DF000A41B83955051B9F7A05DAA3308F0A95DF3
:100E0000A193009779F7B111B1931192CB010C9492
:100E10001407A8E1B0E042E050E00C9426070E94DD
:100E20003407272F0C943507DC01FC01672F7191E3
:100E30007723E1F7329704C07C916D9370836291C0
:100E4000AE17BF07C8F30895DC01CB01FC01E1999F
:100E5000FECF06C0FFBBEEBBE09A31960DB20D92FD
:100E600041505040B8F70895262FE199FECF9FBB1F
:100E70008EBB2DBB0FB6F894E29AE19A0FBE019695
:060E80000895F894FFCF75
:100E86001400700398083C00280023007365745F03
:100E960072706D005365742052504D3A2000617592
:100EA600746F005365743A204155544F200D0A0063
:100EB6006D616E75616C005365743A204D414E55F7
:100EC600414C200D0A007365745F74656D705F6F29
:100ED60066660054656D70206F66663A200073651D
:100EE600745F74656D705F6F6E0054656D70206F12
:100EF6006E3A20007365745F74656D705F6D61781E
:100F06000054656D70206D61783A20007365745FDA
:100F160066616E5F6D696E0046616E206D696E3A40
:100F260020007365745F66616E5F6D61780046616F
:100F36006E206D61783A20007365745F74656D701C
:100F46000054656D70207365743A200046616E200A
:100F5600636F6E74726F6C6C657220726561647912
:100F66000D0A0020205365743A2000202050574D6A
:040F76003A2000001D
:00000001FF
